{
  "_format": "hh-sol-artifact-1",
  "contractName": "SevenDay",
  "sourceName": "contracts/Contract.sol",
  "abi": [
    {
      "inputs": [
        {
          "internalType": "string",
          "name": "initBaseURI",
          "type": "string"
        }
      ],
      "stateMutability": "nonpayable",
      "type": "constructor"
    },
    {
      "inputs": [],
      "name": "ApprovalCallerNotOwnerNorApproved",
      "type": "error"
    },
    {
      "inputs": [],
      "name": "ApprovalQueryForNonexistentToken",
      "type": "error"
    },
    {
      "inputs": [],
      "name": "ApprovalToCurrentOwner",
      "type": "error"
    },
    {
      "inputs": [],
      "name": "ApproveToCaller",
      "type": "error"
    },
    {
      "inputs": [],
      "name": "BalanceQueryForZeroAddress",
      "type": "error"
    },
    {
      "inputs": [],
      "name": "MintToZeroAddress",
      "type": "error"
    },
    {
      "inputs": [],
      "name": "MintZeroQuantity",
      "type": "error"
    },
    {
      "inputs": [],
      "name": "MintedQueryForZeroAddress",
      "type": "error"
    },
    {
      "inputs": [],
      "name": "OwnerIndexOutOfBounds",
      "type": "error"
    },
    {
      "inputs": [],
      "name": "OwnerQueryForNonexistentToken",
      "type": "error"
    },
    {
      "inputs": [],
      "name": "TokenIndexOutOfBounds",
      "type": "error"
    },
    {
      "inputs": [],
      "name": "TransferCallerNotOwnerNorApproved",
      "type": "error"
    },
    {
      "inputs": [],
      "name": "TransferFromIncorrectOwner",
      "type": "error"
    },
    {
      "inputs": [],
      "name": "TransferToNonERC721ReceiverImplementer",
      "type": "error"
    },
    {
      "inputs": [],
      "name": "TransferToZeroAddress",
      "type": "error"
    },
    {
      "inputs": [],
      "name": "URIQueryForNonexistentToken",
      "type": "error"
    },
    {
      "anonymous": false,
      "inputs": [
        {
          "indexed": true,
          "internalType": "address",
          "name": "owner",
          "type": "address"
        },
        {
          "indexed": true,
          "internalType": "address",
          "name": "approved",
          "type": "address"
        },
        {
          "indexed": true,
          "internalType": "uint256",
          "name": "tokenId",
          "type": "uint256"
        }
      ],
      "name": "Approval",
      "type": "event"
    },
    {
      "anonymous": false,
      "inputs": [
        {
          "indexed": true,
          "internalType": "address",
          "name": "owner",
          "type": "address"
        },
        {
          "indexed": true,
          "internalType": "address",
          "name": "operator",
          "type": "address"
        },
        {
          "indexed": false,
          "internalType": "bool",
          "name": "approved",
          "type": "bool"
        }
      ],
      "name": "ApprovalForAll",
      "type": "event"
    },
    {
      "anonymous": false,
      "inputs": [
        {
          "indexed": true,
          "internalType": "address",
          "name": "previousOwner",
          "type": "address"
        },
        {
          "indexed": true,
          "internalType": "address",
          "name": "newOwner",
          "type": "address"
        }
      ],
      "name": "OwnershipTransferred",
      "type": "event"
    },
    {
      "anonymous": false,
      "inputs": [
        {
          "indexed": true,
          "internalType": "address",
          "name": "from",
          "type": "address"
        },
        {
          "indexed": true,
          "internalType": "address",
          "name": "to",
          "type": "address"
        },
        {
          "indexed": true,
          "internalType": "uint256",
          "name": "tokenId",
          "type": "uint256"
        }
      ],
      "name": "Transfer",
      "type": "event"
    },
    {
      "inputs": [
        {
          "internalType": "address",
          "name": "to",
          "type": "address"
        },
        {
          "internalType": "uint256",
          "name": "tokenId",
          "type": "uint256"
        }
      ],
      "name": "approve",
      "outputs": [],
      "stateMutability": "nonpayable",
      "type": "function"
    },
    {
      "inputs": [
        {
          "internalType": "address",
          "name": "owner",
          "type": "address"
        }
      ],
      "name": "balanceOf",
      "outputs": [
        {
          "internalType": "uint256",
          "name": "",
          "type": "uint256"
        }
      ],
      "stateMutability": "view",
      "type": "function"
    },
    {
      "inputs": [],
      "name": "baseURI",
      "outputs": [
        {
          "internalType": "string",
          "name": "",
          "type": "string"
        }
      ],
      "stateMutability": "view",
      "type": "function"
    },
    {
      "inputs": [],
      "name": "cost",
      "outputs": [
        {
          "internalType": "uint256",
          "name": "",
          "type": "uint256"
        }
      ],
      "stateMutability": "view",
      "type": "function"
    },
    {
      "inputs": [
        {
          "internalType": "uint256",
          "name": "tokenId",
          "type": "uint256"
        }
      ],
      "name": "getApproved",
      "outputs": [
        {
          "internalType": "address",
          "name": "",
          "type": "address"
        }
      ],
      "stateMutability": "view",
      "type": "function"
    },
    {
      "inputs": [
        {
          "internalType": "address",
          "name": "owner",
          "type": "address"
        },
        {
          "internalType": "address",
          "name": "operator",
          "type": "address"
        }
      ],
      "name": "isApprovedForAll",
      "outputs": [
        {
          "internalType": "bool",
          "name": "",
          "type": "bool"
        }
      ],
      "stateMutability": "view",
      "type": "function"
    },
    {
      "inputs": [],
      "name": "maxMintAmount",
      "outputs": [
        {
          "internalType": "uint256",
          "name": "",
          "type": "uint256"
        }
      ],
      "stateMutability": "view",
      "type": "function"
    },
    {
      "inputs": [],
      "name": "maxSupply",
      "outputs": [
        {
          "internalType": "uint256",
          "name": "",
          "type": "uint256"
        }
      ],
      "stateMutability": "view",
      "type": "function"
    },
    {
      "inputs": [
        {
          "internalType": "uint256",
          "name": "quantity",
          "type": "uint256"
        }
      ],
      "name": "mint",
      "outputs": [],
      "stateMutability": "payable",
      "type": "function"
    },
    {
      "inputs": [],
      "name": "name",
      "outputs": [
        {
          "internalType": "string",
          "name": "",
          "type": "string"
        }
      ],
      "stateMutability": "view",
      "type": "function"
    },
    {
      "inputs": [
        {
          "internalType": "address",
          "name": "owner",
          "type": "address"
        }
      ],
      "name": "numberMinted",
      "outputs": [
        {
          "internalType": "uint256",
          "name": "",
          "type": "uint256"
        }
      ],
      "stateMutability": "view",
      "type": "function"
    },
    {
      "inputs": [],
      "name": "owner",
      "outputs": [
        {
          "internalType": "address",
          "name": "",
          "type": "address"
        }
      ],
      "stateMutability": "view",
      "type": "function"
    },
    {
      "inputs": [
        {
          "internalType": "uint256",
          "name": "tokenId",
          "type": "uint256"
        }
      ],
      "name": "ownerOf",
      "outputs": [
        {
          "internalType": "address",
          "name": "",
          "type": "address"
        }
      ],
      "stateMutability": "view",
      "type": "function"
    },
    {
      "inputs": [],
      "name": "paused",
      "outputs": [
        {
          "internalType": "bool",
          "name": "",
          "type": "bool"
        }
      ],
      "stateMutability": "view",
      "type": "function"
    },
    {
      "inputs": [
        {
          "internalType": "uint256",
          "name": "tokenId",
          "type": "uint256"
        }
      ],
      "name": "refund",
      "outputs": [],
      "stateMutability": "nonpayable",
      "type": "function"
    },
    {
      "inputs": [],
      "name": "renounceOwnership",
      "outputs": [],
      "stateMutability": "nonpayable",
      "type": "function"
    },
    {
      "inputs": [
        {
          "internalType": "address",
          "name": "from",
          "type": "address"
        },
        {
          "internalType": "address",
          "name": "to",
          "type": "address"
        },
        {
          "internalType": "uint256",
          "name": "tokenId",
          "type": "uint256"
        }
      ],
      "name": "safeTransferFrom",
      "outputs": [],
      "stateMutability": "nonpayable",
      "type": "function"
    },
    {
      "inputs": [
        {
          "internalType": "address",
          "name": "from",
          "type": "address"
        },
        {
          "internalType": "address",
          "name": "to",
          "type": "address"
        },
        {
          "internalType": "uint256",
          "name": "tokenId",
          "type": "uint256"
        },
        {
          "internalType": "bytes",
          "name": "_data",
          "type": "bytes"
        }
      ],
      "name": "safeTransferFrom",
      "outputs": [],
      "stateMutability": "nonpayable",
      "type": "function"
    },
    {
      "inputs": [
        {
          "internalType": "address",
          "name": "operator",
          "type": "address"
        },
        {
          "internalType": "bool",
          "name": "approved",
          "type": "bool"
        }
      ],
      "name": "setApprovalForAll",
      "outputs": [],
      "stateMutability": "nonpayable",
      "type": "function"
    },
    {
      "inputs": [
        {
          "internalType": "string",
          "name": "newBaseURI",
          "type": "string"
        }
      ],
      "name": "setBaseURI",
      "outputs": [],
      "stateMutability": "nonpayable",
      "type": "function"
    },
    {
      "inputs": [
        {
          "internalType": "bool",
          "name": "_state",
          "type": "bool"
        }
      ],
      "name": "setPaused",
      "outputs": [],
      "stateMutability": "nonpayable",
      "type": "function"
    },
    {
      "inputs": [
        {
          "internalType": "bytes4",
          "name": "interfaceId",
          "type": "bytes4"
        }
      ],
      "name": "supportsInterface",
      "outputs": [
        {
          "internalType": "bool",
          "name": "",
          "type": "bool"
        }
      ],
      "stateMutability": "view",
      "type": "function"
    },
    {
      "inputs": [],
      "name": "symbol",
      "outputs": [
        {
          "internalType": "string",
          "name": "",
          "type": "string"
        }
      ],
      "stateMutability": "view",
      "type": "function"
    },
    {
      "inputs": [
        {
          "internalType": "uint256",
          "name": "index",
          "type": "uint256"
        }
      ],
      "name": "tokenByIndex",
      "outputs": [
        {
          "internalType": "uint256",
          "name": "",
          "type": "uint256"
        }
      ],
      "stateMutability": "view",
      "type": "function"
    },
    {
      "inputs": [
        {
          "internalType": "address",
          "name": "owner",
          "type": "address"
        },
        {
          "internalType": "uint256",
          "name": "index",
          "type": "uint256"
        }
      ],
      "name": "tokenOfOwnerByIndex",
      "outputs": [
        {
          "internalType": "uint256",
          "name": "",
          "type": "uint256"
        }
      ],
      "stateMutability": "view",
      "type": "function"
    },
    {
      "inputs": [
        {
          "internalType": "uint256",
          "name": "tokenId",
          "type": "uint256"
        }
      ],
      "name": "tokenURI",
      "outputs": [
        {
          "internalType": "string",
          "name": "",
          "type": "string"
        }
      ],
      "stateMutability": "view",
      "type": "function"
    },
    {
      "inputs": [],
      "name": "totalSupply",
      "outputs": [
        {
          "internalType": "uint256",
          "name": "",
          "type": "uint256"
        }
      ],
      "stateMutability": "view",
      "type": "function"
    },
    {
      "inputs": [
        {
          "internalType": "address",
          "name": "from",
          "type": "address"
        },
        {
          "internalType": "address",
          "name": "to",
          "type": "address"
        },
        {
          "internalType": "uint256",
          "name": "tokenId",
          "type": "uint256"
        }
      ],
      "name": "transferFrom",
      "outputs": [],
      "stateMutability": "nonpayable",
      "type": "function"
    },
    {
      "inputs": [
        {
          "internalType": "address",
          "name": "newOwner",
          "type": "address"
        }
      ],
      "name": "transferOwnership",
      "outputs": [],
      "stateMutability": "nonpayable",
      "type": "function"
    },
    {
      "inputs": [
        {
          "internalType": "uint256",
          "name": "_id",
          "type": "uint256"
        }
      ],
      "name": "viewTimeStampID",
      "outputs": [
        {
          "internalType": "uint256",
          "name": "",
          "type": "uint256"
        }
      ],
      "stateMutability": "view",
      "type": "function"
    },
    {
      "inputs": [],
      "name": "withdraw",
      "outputs": [],
      "stateMutability": "nonpayable",
      "type": "function"
    }
  ],
  "bytecode": "0x60806040526000600760146101000a81548160ff0219169083151502179055503480156200002c57600080fd5b5060405162004c5038038062004c5083398181016040528101906200005291906200094c565b6040518060400160405280600781526020017f374461794e4654000000000000000000000000000000000000000000000000008152506040518060400160405280600481526020017f37446179000000000000000000000000000000000000000000000000000000008152508160019080519060200190620000d6929190620007d5565b508060029080519060200190620000ef929190620007d5565b50505062000112620001066200014560201b60201c565b6200014d60201b60201c565b80600890805190602001906200012a929190620007d5565b506200013e3360016200021360201b60201c565b5062000c78565b600033905090565b6000600760009054906101000a900473ffffffffffffffffffffffffffffffffffffffff16905081600760006101000a81548173ffffffffffffffffffffffffffffffffffffffff021916908373ffffffffffffffffffffffffffffffffffffffff1602179055508173ffffffffffffffffffffffffffffffffffffffff168173ffffffffffffffffffffffffffffffffffffffff167f8be0079c531659141344cd1fd0a4f28419497f9722a3daafe3b4186f6b6457e060405160405180910390a35050565b620002358282604051806020016040528060008152506200023960201b60201c565b5050565b6200024e83838360016200025360201b60201c565b505050565b60008060009054906101000a90046fffffffffffffffffffffffffffffffff166fffffffffffffffffffffffffffffffff169050600073ffffffffffffffffffffffffffffffffffffffff168573ffffffffffffffffffffffffffffffffffffffff161415620002ef576040517f2e07630000000000000000000000000000000000000000000000000000000000815260040160405180910390fd5b60008414156200032b576040517fb562e8dd00000000000000000000000000000000000000000000000000000000815260040160405180910390fd5b6200034060008683876200060760201b60201c565b83600460008773ffffffffffffffffffffffffffffffffffffffff1673ffffffffffffffffffffffffffffffffffffffff16815260200190815260200160002060000160008282829054906101000a900467ffffffffffffffff160192506101000a81548167ffffffffffffffff021916908367ffffffffffffffff16021790555083600460008773ffffffffffffffffffffffffffffffffffffffff1673ffffffffffffffffffffffffffffffffffffffff16815260200190815260200160002060000160088282829054906101000a900467ffffffffffffffff160192506101000a81548167ffffffffffffffff021916908367ffffffffffffffff160217905550846003600083815260200190815260200160002060000160006101000a81548173ffffffffffffffffffffffffffffffffffffffff021916908373ffffffffffffffffffffffffffffffffffffffff160217905550426003600083815260200190815260200160002060000160146101000a81548167ffffffffffffffff021916908367ffffffffffffffff160217905550600081905060005b85811015620005b157818773ffffffffffffffffffffffffffffffffffffffff16600073ffffffffffffffffffffffffffffffffffffffff167fddf252ad1be2c89b69c2b068fc378daa952ba7f163c4a11628f55a4df523b3ef60405160405180910390a48380156200056357506200056160008884886200060d60201b60201c565b155b156200059b576040517fd1a57ed600000000000000000000000000000000000000000000000000000000815260040160405180910390fd5b81806001019250508080600101915050620004de565b50806000806101000a8154816fffffffffffffffffffffffffffffffff02191690836fffffffffffffffffffffffffffffffff16021790555050620006006000868387620007bc60201b60201c565b5050505050565b50505050565b60006200063b8473ffffffffffffffffffffffffffffffffffffffff16620007c260201b62001c7a1760201c565b15620007af578373ffffffffffffffffffffffffffffffffffffffff1663150b7a026200066d6200014560201b60201c565b8786866040518563ffffffff1660e01b815260040162000691949392919062000a00565b602060405180830381600087803b158015620006ac57600080fd5b505af1925050508015620006e057506040513d601f19601f82011682018060405250810190620006dd91906200091a565b60015b6200075e573d806000811462000713576040519150601f19603f3d011682016040523d82523d6000602084013e62000718565b606091505b5060008151141562000756576040517fd1a57ed600000000000000000000000000000000000000000000000000000000815260040160405180910390fd5b805181602001fd5b63150b7a0260e01b7bffffffffffffffffffffffffffffffffffffffffffffffffffffffff1916817bffffffffffffffffffffffffffffffffffffffffffffffffffffffff191614915050620007b4565b600190505b949350505050565b50505050565b600080823b905060008111915050919050565b828054620007e39062000b6f565b90600052602060002090601f01602090048101928262000807576000855562000853565b82601f106200082257805160ff191683800117855562000853565b8280016001018555821562000853579182015b828111156200085257825182559160200191906001019062000835565b5b50905062000862919062000866565b5090565b5b808211156200088157600081600090555060010162000867565b5090565b60006200089c620008968462000a7d565b62000a54565b905082815260208101848484011115620008bb57620008ba62000c3e565b5b620008c884828562000b39565b509392505050565b600081519050620008e18162000c5e565b92915050565b600082601f830112620008ff57620008fe62000c39565b5b81516200091184826020860162000885565b91505092915050565b60006020828403121562000933576200093262000c48565b5b60006200094384828501620008d0565b91505092915050565b60006020828403121562000965576200096462000c48565b5b600082015167ffffffffffffffff81111562000986576200098562000c43565b5b6200099484828501620008e7565b91505092915050565b620009a88162000acf565b82525050565b6000620009bb8262000ab3565b620009c7818562000abe565b9350620009d981856020860162000b39565b620009e48162000c4d565b840191505092915050565b620009fa8162000b2f565b82525050565b600060808201905062000a1760008301876200099d565b62000a2660208301866200099d565b62000a356040830185620009ef565b818103606083015262000a498184620009ae565b905095945050505050565b600062000a6062000a73565b905062000a6e828262000ba5565b919050565b6000604051905090565b600067ffffffffffffffff82111562000a9b5762000a9a62000c0a565b5b62000aa68262000c4d565b9050602081019050919050565b600081519050919050565b600082825260208201905092915050565b600062000adc8262000b0f565b9050919050565b60007fffffffff0000000000000000000000000000000000000000000000000000000082169050919050565b600073ffffffffffffffffffffffffffffffffffffffff82169050919050565b6000819050919050565b60005b8381101562000b5957808201518184015260208101905062000b3c565b8381111562000b69576000848401525b50505050565b6000600282049050600182168062000b8857607f821691505b6020821081141562000b9f5762000b9e62000bdb565b5b50919050565b62000bb08262000c4d565b810181811067ffffffffffffffff8211171562000bd25762000bd162000c0a565b5b80604052505050565b7f4e487b7100000000000000000000000000000000000000000000000000000000600052602260045260246000fd5b7f4e487b7100000000000000000000000000000000000000000000000000000000600052604160045260246000fd5b600080fd5b600080fd5b600080fd5b600080fd5b6000601f19601f8301169050919050565b62000c698162000ae3565b811462000c7557600080fd5b50565b613fc88062000c886000396000f3fe6080604052600436106101d85760003560e01c80635c975abb11610102578063a22cb46511610095578063d5abeb0111610064578063d5abeb01146106af578063dc33e681146106da578063e985e9c514610717578063f2fde38b14610754576101d8565b8063a22cb465146105e3578063b5d1508e1461060c578063b88d4fde14610649578063c87b56dd14610672576101d8565b8063715018a6116100d1578063715018a61461055a5780638da5cb5b1461057157806395d89b411461059c578063a0712d68146105c7576101d8565b80635c975abb1461048a5780636352211e146104b55780636c0360eb146104f257806370a082311461051d576101d8565b8063239c70ae1161017a5780633ccfd60b116101495780633ccfd60b146103e457806342842e0e146103fb5780634f6ccce71461042457806355f804b314610461576101d8565b8063239c70ae1461032a57806323b872dd14610355578063278ecde11461037e5780632f745c59146103a7576101d8565b8063095ea7b3116101b6578063095ea7b31461028257806313faede6146102ab57806316c38b3c146102d657806318160ddd146102ff576101d8565b806301ffc9a7146101dd57806306fdde031461021a578063081812fc14610245575b600080fd5b3480156101e957600080fd5b5061020460048036038101906101ff91906132cc565b61077d565b604051610211919061367c565b60405180910390f35b34801561022657600080fd5b5061022f6108c7565b60405161023c9190613697565b60405180910390f35b34801561025157600080fd5b5061026c60048036038101906102679190613373565b610959565b6040516102799190613615565b60405180910390f35b34801561028e57600080fd5b506102a960048036038101906102a4919061325f565b6109d5565b005b3480156102b757600080fd5b506102c0610ae0565b6040516102cd9190613819565b60405180910390f35b3480156102e257600080fd5b506102fd60048036038101906102f8919061329f565b610aeb565b005b34801561030b57600080fd5b50610314610b84565b6040516103219190613819565b60405180910390f35b34801561033657600080fd5b5061033f610bd9565b60405161034c9190613819565b60405180910390f35b34801561036157600080fd5b5061037c60048036038101906103779190613149565b610bde565b005b34801561038a57600080fd5b506103a560048036038101906103a09190613373565b610bee565b005b3480156103b357600080fd5b506103ce60048036038101906103c9919061325f565b610d2f565b6040516103db9190613819565b60405180910390f35b3480156103f057600080fd5b506103f9610f36565b005b34801561040757600080fd5b50610422600480360381019061041d9190613149565b6110b1565b005b34801561043057600080fd5b5061044b60048036038101906104469190613373565b6110d1565b6040516104589190613819565b60405180910390f35b34801561046d57600080fd5b5061048860048036038101906104839190613326565b611242565b005b34801561049657600080fd5b5061049f6112d4565b6040516104ac919061367c565b60405180910390f35b3480156104c157600080fd5b506104dc60048036038101906104d79190613373565b6112e7565b6040516104e99190613615565b60405180910390f35b3480156104fe57600080fd5b506105076112fd565b6040516105149190613697565b60405180910390f35b34801561052957600080fd5b50610544600480360381019061053f91906130dc565b61138b565b6040516105519190613819565b60405180910390f35b34801561056657600080fd5b5061056f61145b565b005b34801561057d57600080fd5b506105866114e3565b6040516105939190613615565b60405180910390f35b3480156105a857600080fd5b506105b161150d565b6040516105be9190613697565b60405180910390f35b6105e160048036038101906105dc9190613373565b61159f565b005b3480156105ef57600080fd5b5061060a6004803603810190610605919061321f565b61184f565b005b34801561061857600080fd5b50610633600480360381019061062e9190613373565b6119c7565b6040516106409190613819565b60405180910390f35b34801561065557600080fd5b50610670600480360381019061066b919061319c565b6119e4565b005b34801561067e57600080fd5b5061069960048036038101906106949190613373565b611a37565b6040516106a69190613697565b60405180910390f35b3480156106bb57600080fd5b506106c4611ad6565b6040516106d19190613819565b60405180910390f35b3480156106e657600080fd5b5061070160048036038101906106fc91906130dc565b611adc565b60405161070e9190613819565b60405180910390f35b34801561072357600080fd5b5061073e60048036038101906107399190613109565b611aee565b60405161074b919061367c565b60405180910390f35b34801561076057600080fd5b5061077b600480360381019061077691906130dc565b611b82565b005b60007f80ac58cd000000000000000000000000000000000000000000000000000000007bffffffffffffffffffffffffffffffffffffffffffffffffffffffff1916827bffffffffffffffffffffffffffffffffffffffffffffffffffffffff1916148061084857507f5b5e139f000000000000000000000000000000000000000000000000000000007bffffffffffffffffffffffffffffffffffffffffffffffffffffffff1916827bffffffffffffffffffffffffffffffffffffffffffffffffffffffff1916145b806108b057507f780e9d63000000000000000000000000000000000000000000000000000000007bffffffffffffffffffffffffffffffffffffffffffffffffffffffff1916827bffffffffffffffffffffffffffffffffffffffffffffffffffffffff1916145b806108c057506108bf82611c8d565b5b9050919050565b6060600180546108d690613a98565b80601f016020809104026020016040519081016040528092919081815260200182805461090290613a98565b801561094f5780601f106109245761010080835404028352916020019161094f565b820191906000526020600020905b81548152906001019060200180831161093257829003601f168201915b5050505050905090565b600061096482611cf7565b61099a576040517fcf4700e400000000000000000000000000000000000000000000000000000000815260040160405180910390fd5b6005600083815260200190815260200160002060009054906101000a900473ffffffffffffffffffffffffffffffffffffffff169050919050565b60006109e0826112e7565b90508073ffffffffffffffffffffffffffffffffffffffff168373ffffffffffffffffffffffffffffffffffffffff161415610a48576040517f943f7b8c00000000000000000000000000000000000000000000000000000000815260040160405180910390fd5b8073ffffffffffffffffffffffffffffffffffffffff16610a67611d5f565b73ffffffffffffffffffffffffffffffffffffffff1614158015610a995750610a9781610a92611d5f565b611aee565b155b15610ad0576040517fcfb3b94200000000000000000000000000000000000000000000000000000000815260040160405180910390fd5b610adb838383611d67565b505050565b662386f26fc1000081565b610af3611d5f565b73ffffffffffffffffffffffffffffffffffffffff16610b116114e3565b73ffffffffffffffffffffffffffffffffffffffff1614610b67576040517f08c379a0000000000000000000000000000000000000000000000000000000008152600401610b5e90613739565b60405180910390fd5b80600760146101000a81548160ff02191690831515021790555050565b60008060109054906101000a90046fffffffffffffffffffffffffffffffff1660008054906101000a90046fffffffffffffffffffffffffffffffff16036fffffffffffffffffffffffffffffffff16905090565b600281565b610be9838383611e19565b505050565b3373ffffffffffffffffffffffffffffffffffffffff163273ffffffffffffffffffffffffffffffffffffffff1614610c5c576040517f08c379a0000000000000000000000000000000000000000000000000000000008152600401610c5390613799565b60405180910390fd5b62093a80600960008381526020019081526020016000205442610c7f91906139ae565b10610cbf576040517f08c379a0000000000000000000000000000000000000000000000000000000008152600401610cb6906137f9565b60405180910390fd5b610cde3373ab5801a7d398351b8be11c439e05c5b3259aec9b83610bde565b3373ffffffffffffffffffffffffffffffffffffffff166108fc662386f26fc100009081150290604051600060405180830381858888f19350505050158015610d2b573d6000803e3d6000fd5b5050565b6000610d3a8361138b565b8210610d72576040517f0ddac30e00000000000000000000000000000000000000000000000000000000815260040160405180910390fd5b60008060009054906101000a90046fffffffffffffffffffffffffffffffff166fffffffffffffffffffffffffffffffff16905060008060005b83811015610f2a576000600360008381526020019081526020016000206040518060600160405290816000820160009054906101000a900473ffffffffffffffffffffffffffffffffffffffff1673ffffffffffffffffffffffffffffffffffffffff1673ffffffffffffffffffffffffffffffffffffffff1681526020016000820160149054906101000a900467ffffffffffffffff1667ffffffffffffffff1667ffffffffffffffff16815260200160008201601c9054906101000a900460ff1615151515815250509050806040015115610e895750610f1d565b600073ffffffffffffffffffffffffffffffffffffffff16816000015173ffffffffffffffffffffffffffffffffffffffff1614610ec957806000015192505b8773ffffffffffffffffffffffffffffffffffffffff168373ffffffffffffffffffffffffffffffffffffffff161415610f1b5786841415610f12578195505050505050610f30565b83806001019450505b505b8080600101915050610dac565b50600080fd5b92915050565b610f3e611d5f565b73ffffffffffffffffffffffffffffffffffffffff16610f5c6114e3565b73ffffffffffffffffffffffffffffffffffffffff1614610fb2576040517f08c379a0000000000000000000000000000000000000000000000000000000008152600401610fa990613739565b60405180910390fd5b6103fc610fbd610b84565b11610ffd576040517f08c379a0000000000000000000000000000000000000000000000000000000008152600401610ff4906136d9565b60405180910390fd5b62093a80600960006103fc8152602001908152602001600020544261102291906139ae565b11611062576040517f08c379a000000000000000000000000000000000000000000000000000000000815260040161105990613719565b60405180910390fd5b60004790503373ffffffffffffffffffffffffffffffffffffffff166108fc829081150290604051600060405180830381858888f193505050501580156110ad573d6000803e3d6000fd5b5050565b6110cc838383604051806020016040528060008152506119e4565b505050565b60008060008054906101000a90046fffffffffffffffffffffffffffffffff166fffffffffffffffffffffffffffffffff1690506000805b8281101561120a576000600360008381526020019081526020016000206040518060600160405290816000820160009054906101000a900473ffffffffffffffffffffffffffffffffffffffff1673ffffffffffffffffffffffffffffffffffffffff1673ffffffffffffffffffffffffffffffffffffffff1681526020016000820160149054906101000a900467ffffffffffffffff1667ffffffffffffffff1667ffffffffffffffff16815260200160008201601c9054906101000a900460ff161515151581525050905080604001516111fc57858314156111f3578194505050505061123d565b82806001019350505b508080600101915050611109565b506040517fa723001c00000000000000000000000000000000000000000000000000000000815260040160405180910390fd5b919050565b61124a611d5f565b73ffffffffffffffffffffffffffffffffffffffff166112686114e3565b73ffffffffffffffffffffffffffffffffffffffff16146112be576040517f08c379a00000000000000000000000000000000000000000000000000000000081526004016112b590613739565b60405180910390fd5b8181600891906112cf929190612ec7565b505050565b600760149054906101000a900460ff1681565b60006112f282612336565b600001519050919050565b6008805461130a90613a98565b80601f016020809104026020016040519081016040528092919081815260200182805461133690613a98565b80156113835780601f1061135857610100808354040283529160200191611383565b820191906000526020600020905b81548152906001019060200180831161136657829003601f168201915b505050505081565b60008073ffffffffffffffffffffffffffffffffffffffff168273ffffffffffffffffffffffffffffffffffffffff1614156113f3576040517f8f4eb60400000000000000000000000000000000000000000000000000000000815260040160405180910390fd5b600460008373ffffffffffffffffffffffffffffffffffffffff1673ffffffffffffffffffffffffffffffffffffffff16815260200190815260200160002060000160009054906101000a900467ffffffffffffffff1667ffffffffffffffff169050919050565b611463611d5f565b73ffffffffffffffffffffffffffffffffffffffff166114816114e3565b73ffffffffffffffffffffffffffffffffffffffff16146114d7576040517f08c379a00000000000000000000000000000000000000000000000000000000081526004016114ce90613739565b60405180910390fd5b6114e160006125de565b565b6000600760009054906101000a900473ffffffffffffffffffffffffffffffffffffffff16905090565b60606002805461151c90613a98565b80601f016020809104026020016040519081016040528092919081815260200182805461154890613a98565b80156115955780601f1061156a57610100808354040283529160200191611595565b820191906000526020600020905b81548152906001019060200180831161157857829003601f168201915b5050505050905090565b80600760149054906101000a900460ff16156115f0576040517f08c379a00000000000000000000000000000000000000000000000000000000081526004016115e790613779565b60405180910390fd5b3373ffffffffffffffffffffffffffffffffffffffff163273ffffffffffffffffffffffffffffffffffffffff161461165e576040517f08c379a000000000000000000000000000000000000000000000000000000000815260040161165590613799565b60405180910390fd5b60008111801561166f575060028111155b6116ae576040517f08c379a00000000000000000000000000000000000000000000000000000000081526004016116a5906137b9565b60405180910390fd5b610400816116ba610b84565b6116c491906138cd565b1115611705576040517f08c379a00000000000000000000000000000000000000000000000000000000081526004016116fc90613759565b60405180910390fd5b60028261171133611adc565b61171b91906138cd565b111561175c576040517f08c379a0000000000000000000000000000000000000000000000000000000008152600401611753906137d9565b60405180910390fd5b81662386f26fc1000061176f9190613954565b3410156117b1576040517f08c379a00000000000000000000000000000000000000000000000000000000081526004016117a8906136f9565b60405180910390fd5b6117bb33836126a4565b600182111561181f57426009600060016117d3610b84565b6117dd91906139ae565b815260200190815260200160002081905550426009600060026117fe610b84565b61180891906139ae565b81526020019081526020016000208190555061184b565b4260096000600161182e610b84565b61183891906139ae565b8152602001908152602001600020819055505b5050565b611857611d5f565b73ffffffffffffffffffffffffffffffffffffffff168273ffffffffffffffffffffffffffffffffffffffff1614156118bc576040517fb06307db00000000000000000000000000000000000000000000000000000000815260040160405180910390fd5b80600660006118c9611d5f565b73ffffffffffffffffffffffffffffffffffffffff1673ffffffffffffffffffffffffffffffffffffffff16815260200190815260200160002060008473ffffffffffffffffffffffffffffffffffffffff1673ffffffffffffffffffffffffffffffffffffffff16815260200190815260200160002060006101000a81548160ff0219169083151502179055508173ffffffffffffffffffffffffffffffffffffffff16611976611d5f565b73ffffffffffffffffffffffffffffffffffffffff167f17307eab39ab6107e8899845ad3d59bd9653f200f220920489ca2b5937696c31836040516119bb919061367c565b60405180910390a35050565b600060096000838152602001908152602001600020549050919050565b6119ef848484611e19565b6119fb848484846126c2565b611a31576040517fd1a57ed600000000000000000000000000000000000000000000000000000000815260040160405180910390fd5b50505050565b6060611a4282611cf7565b611a78576040517fa14c4b5000000000000000000000000000000000000000000000000000000000815260040160405180910390fd5b6000611a82612850565b9050600081511415611aa35760405180602001604052806000815250611ace565b80611aad846128e2565b604051602001611abe9291906135f1565b6040516020818303038152906040525b915050919050565b61040081565b6000611ae782612a43565b9050919050565b6000600660008473ffffffffffffffffffffffffffffffffffffffff1673ffffffffffffffffffffffffffffffffffffffff16815260200190815260200160002060008373ffffffffffffffffffffffffffffffffffffffff1673ffffffffffffffffffffffffffffffffffffffff16815260200190815260200160002060009054906101000a900460ff16905092915050565b611b8a611d5f565b73ffffffffffffffffffffffffffffffffffffffff16611ba86114e3565b73ffffffffffffffffffffffffffffffffffffffff1614611bfe576040517f08c379a0000000000000000000000000000000000000000000000000000000008152600401611bf590613739565b60405180910390fd5b600073ffffffffffffffffffffffffffffffffffffffff168173ffffffffffffffffffffffffffffffffffffffff161415611c6e576040517f08c379a0000000000000000000000000000000000000000000000000000000008152600401611c65906136b9565b60405180910390fd5b611c77816125de565b50565b600080823b905060008111915050919050565b60007f01ffc9a7000000000000000000000000000000000000000000000000000000007bffffffffffffffffffffffffffffffffffffffffffffffffffffffff1916827bffffffffffffffffffffffffffffffffffffffffffffffffffffffff1916149050919050565b60008060009054906101000a90046fffffffffffffffffffffffffffffffff166fffffffffffffffffffffffffffffffff1682108015611d58575060036000838152602001908152602001600020600001601c9054906101000a900460ff16155b9050919050565b600033905090565b826005600084815260200190815260200160002060006101000a81548173ffffffffffffffffffffffffffffffffffffffff021916908373ffffffffffffffffffffffffffffffffffffffff160217905550818373ffffffffffffffffffffffffffffffffffffffff168273ffffffffffffffffffffffffffffffffffffffff167f8c5be1e5ebec7d5bd14f71427d1e84f3dd0314c0f7b2291e5b200ac8c7c3b92560405160405180910390a4505050565b6000611e2482612336565b90506000816000015173ffffffffffffffffffffffffffffffffffffffff16611e4b611d5f565b73ffffffffffffffffffffffffffffffffffffffff161480611e7e5750611e7d8260000151611e78611d5f565b611aee565b5b80611ec35750611e8c611d5f565b73ffffffffffffffffffffffffffffffffffffffff16611eab84610959565b73ffffffffffffffffffffffffffffffffffffffff16145b905080611efc576040517f59c896be00000000000000000000000000000000000000000000000000000000815260040160405180910390fd5b8473ffffffffffffffffffffffffffffffffffffffff16826000015173ffffffffffffffffffffffffffffffffffffffff1614611f65576040517fa114810000000000000000000000000000000000000000000000000000000000815260040160405180910390fd5b600073ffffffffffffffffffffffffffffffffffffffff168473ffffffffffffffffffffffffffffffffffffffff161415611fcc576040517fea553b3400000000000000000000000000000000000000000000000000000000815260040160405180910390fd5b611fd98585856001612b13565b611fe96000848460000151611d67565b6001600460008773ffffffffffffffffffffffffffffffffffffffff1673ffffffffffffffffffffffffffffffffffffffff16815260200190815260200160002060000160008282829054906101000a900467ffffffffffffffff160392506101000a81548167ffffffffffffffff021916908367ffffffffffffffff1602179055506001600460008673ffffffffffffffffffffffffffffffffffffffff1673ffffffffffffffffffffffffffffffffffffffff16815260200190815260200160002060000160008282829054906101000a900467ffffffffffffffff160192506101000a81548167ffffffffffffffff021916908367ffffffffffffffff160217905550836003600085815260200190815260200160002060000160006101000a81548173ffffffffffffffffffffffffffffffffffffffff021916908373ffffffffffffffffffffffffffffffffffffffff160217905550426003600085815260200190815260200160002060000160146101000a81548167ffffffffffffffff021916908367ffffffffffffffff1602179055506000600184019050600073ffffffffffffffffffffffffffffffffffffffff166003600083815260200190815260200160002060000160009054906101000a900473ffffffffffffffffffffffffffffffffffffffff1673ffffffffffffffffffffffffffffffffffffffff1614156122c65760008054906101000a90046fffffffffffffffffffffffffffffffff166fffffffffffffffffffffffffffffffff168110156122c55782600001516003600083815260200190815260200160002060000160006101000a81548173ffffffffffffffffffffffffffffffffffffffff021916908373ffffffffffffffffffffffffffffffffffffffff16021790555082602001516003600083815260200190815260200160002060000160146101000a81548167ffffffffffffffff021916908367ffffffffffffffff1602179055505b5b50828473ffffffffffffffffffffffffffffffffffffffff168673ffffffffffffffffffffffffffffffffffffffff167fddf252ad1be2c89b69c2b068fc378daa952ba7f163c4a11628f55a4df523b3ef60405160405180910390a461232f8585856001612b19565b5050505050565b61233e612f4d565b600082905060008054906101000a90046fffffffffffffffffffffffffffffffff166fffffffffffffffffffffffffffffffff168110156125a7576000600360008381526020019081526020016000206040518060600160405290816000820160009054906101000a900473ffffffffffffffffffffffffffffffffffffffff1673ffffffffffffffffffffffffffffffffffffffff1673ffffffffffffffffffffffffffffffffffffffff1681526020016000820160149054906101000a900467ffffffffffffffff1667ffffffffffffffff1667ffffffffffffffff16815260200160008201601c9054906101000a900460ff161515151581525050905080604001516125a557600073ffffffffffffffffffffffffffffffffffffffff16816000015173ffffffffffffffffffffffffffffffffffffffff16146124895780925050506125d9565b5b6001156125a457818060019003925050600360008381526020019081526020016000206040518060600160405290816000820160009054906101000a900473ffffffffffffffffffffffffffffffffffffffff1673ffffffffffffffffffffffffffffffffffffffff1673ffffffffffffffffffffffffffffffffffffffff1681526020016000820160149054906101000a900467ffffffffffffffff1667ffffffffffffffff1667ffffffffffffffff16815260200160008201601c9054906101000a900460ff1615151515815250509050600073ffffffffffffffffffffffffffffffffffffffff16816000015173ffffffffffffffffffffffffffffffffffffffff161461259f5780925050506125d9565b61248a565b5b505b6040517fdf2d9b4200000000000000000000000000000000000000000000000000000000815260040160405180910390fd5b919050565b6000600760009054906101000a900473ffffffffffffffffffffffffffffffffffffffff16905081600760006101000a81548173ffffffffffffffffffffffffffffffffffffffff021916908373ffffffffffffffffffffffffffffffffffffffff1602179055508173ffffffffffffffffffffffffffffffffffffffff168173ffffffffffffffffffffffffffffffffffffffff167f8be0079c531659141344cd1fd0a4f28419497f9722a3daafe3b4186f6b6457e060405160405180910390a35050565b6126be828260405180602001604052806000815250612b1f565b5050565b60006126e38473ffffffffffffffffffffffffffffffffffffffff16611c7a565b15612843578373ffffffffffffffffffffffffffffffffffffffff1663150b7a0261270c611d5f565b8786866040518563ffffffff1660e01b815260040161272e9493929190613630565b602060405180830381600087803b15801561274857600080fd5b505af192505050801561277957506040513d601f19601f8201168201806040525081019061277691906132f9565b60015b6127f3573d80600081146127a9576040519150601f19603f3d011682016040523d82523d6000602084013e6127ae565b606091505b506000815114156127eb576040517fd1a57ed600000000000000000000000000000000000000000000000000000000815260040160405180910390fd5b805181602001fd5b63150b7a0260e01b7bffffffffffffffffffffffffffffffffffffffffffffffffffffffff1916817bffffffffffffffffffffffffffffffffffffffffffffffffffffffff191614915050612848565b600190505b949350505050565b60606008805461285f90613a98565b80601f016020809104026020016040519081016040528092919081815260200182805461288b90613a98565b80156128d85780601f106128ad576101008083540402835291602001916128d8565b820191906000526020600020905b8154815290600101906020018083116128bb57829003601f168201915b5050505050905090565b6060600082141561292a576040518060400160405280600181526020017f30000000000000000000000000000000000000000000000000000000000000008152509050612a3e565b600082905060005b6000821461295c57808061294590613afb565b915050600a826129559190613923565b9150612932565b60008167ffffffffffffffff81111561297857612977613c31565b5b6040519080825280601f01601f1916602001820160405280156129aa5781602001600182028036833780820191505090505b5090505b60008514612a37576001826129c391906139ae565b9150600a856129d29190613b44565b60306129de91906138cd565b60f81b8183815181106129f4576129f3613c02565b5b60200101907effffffffffffffffffffffffffffffffffffffffffffffffffffffffffffff1916908160001a905350600a85612a309190613923565b94506129ae565b8093505050505b919050565b60008073ffffffffffffffffffffffffffffffffffffffff168273ffffffffffffffffffffffffffffffffffffffff161415612aab576040517f35ebb31900000000000000000000000000000000000000000000000000000000815260040160405180910390fd5b600460008373ffffffffffffffffffffffffffffffffffffffff1673ffffffffffffffffffffffffffffffffffffffff16815260200190815260200160002060000160089054906101000a900467ffffffffffffffff1667ffffffffffffffff169050919050565b50505050565b50505050565b612b2c8383836001612b31565b505050565b60008060009054906101000a90046fffffffffffffffffffffffffffffffff166fffffffffffffffffffffffffffffffff169050600073ffffffffffffffffffffffffffffffffffffffff168573ffffffffffffffffffffffffffffffffffffffff161415612bcc576040517f2e07630000000000000000000000000000000000000000000000000000000000815260040160405180910390fd5b6000841415612c07576040517fb562e8dd00000000000000000000000000000000000000000000000000000000815260040160405180910390fd5b612c146000868387612b13565b83600460008773ffffffffffffffffffffffffffffffffffffffff1673ffffffffffffffffffffffffffffffffffffffff16815260200190815260200160002060000160008282829054906101000a900467ffffffffffffffff160192506101000a81548167ffffffffffffffff021916908367ffffffffffffffff16021790555083600460008773ffffffffffffffffffffffffffffffffffffffff1673ffffffffffffffffffffffffffffffffffffffff16815260200190815260200160002060000160088282829054906101000a900467ffffffffffffffff160192506101000a81548167ffffffffffffffff021916908367ffffffffffffffff160217905550846003600083815260200190815260200160002060000160006101000a81548173ffffffffffffffffffffffffffffffffffffffff021916908373ffffffffffffffffffffffffffffffffffffffff160217905550426003600083815260200190815260200160002060000160146101000a81548167ffffffffffffffff021916908367ffffffffffffffff160217905550600081905060005b85811015612e7957818773ffffffffffffffffffffffffffffffffffffffff16600073ffffffffffffffffffffffffffffffffffffffff167fddf252ad1be2c89b69c2b068fc378daa952ba7f163c4a11628f55a4df523b3ef60405160405180910390a4838015612e2d5750612e2b60008884886126c2565b155b15612e64576040517fd1a57ed600000000000000000000000000000000000000000000000000000000815260040160405180910390fd5b81806001019250508080600101915050612db2565b50806000806101000a8154816fffffffffffffffffffffffffffffffff02191690836fffffffffffffffffffffffffffffffff16021790555050612ec06000868387612b19565b5050505050565b828054612ed390613a98565b90600052602060002090601f016020900481019282612ef55760008555612f3c565b82601f10612f0e57803560ff1916838001178555612f3c565b82800160010185558215612f3c579182015b82811115612f3b578235825591602001919060010190612f20565b5b509050612f499190612f90565b5090565b6040518060600160405280600073ffffffffffffffffffffffffffffffffffffffff168152602001600067ffffffffffffffff1681526020016000151581525090565b5b80821115612fa9576000816000905550600101612f91565b5090565b6000612fc0612fbb84613859565b613834565b905082815260208101848484011115612fdc57612fdb613c6f565b5b612fe7848285613a56565b509392505050565b600081359050612ffe81613f36565b92915050565b60008135905061301381613f4d565b92915050565b60008135905061302881613f64565b92915050565b60008151905061303d81613f64565b92915050565b600082601f83011261305857613057613c65565b5b8135613068848260208601612fad565b91505092915050565b60008083601f84011261308757613086613c65565b5b8235905067ffffffffffffffff8111156130a4576130a3613c60565b5b6020830191508360018202830111156130c0576130bf613c6a565b5b9250929050565b6000813590506130d681613f7b565b92915050565b6000602082840312156130f2576130f1613c79565b5b600061310084828501612fef565b91505092915050565b600080604083850312156131205761311f613c79565b5b600061312e85828601612fef565b925050602061313f85828601612fef565b9150509250929050565b60008060006060848603121561316257613161613c79565b5b600061317086828701612fef565b935050602061318186828701612fef565b9250506040613192868287016130c7565b9150509250925092565b600080600080608085870312156131b6576131b5613c79565b5b60006131c487828801612fef565b94505060206131d587828801612fef565b93505060406131e6878288016130c7565b925050606085013567ffffffffffffffff81111561320757613206613c74565b5b61321387828801613043565b91505092959194509250565b6000806040838503121561323657613235613c79565b5b600061324485828601612fef565b925050602061325585828601613004565b9150509250929050565b6000806040838503121561327657613275613c79565b5b600061328485828601612fef565b9250506020613295858286016130c7565b9150509250929050565b6000602082840312156132b5576132b4613c79565b5b60006132c384828501613004565b91505092915050565b6000602082840312156132e2576132e1613c79565b5b60006132f084828501613019565b91505092915050565b60006020828403121561330f5761330e613c79565b5b600061331d8482850161302e565b91505092915050565b6000806020838503121561333d5761333c613c79565b5b600083013567ffffffffffffffff81111561335b5761335a613c74565b5b61336785828601613071565b92509250509250929050565b60006020828403121561338957613388613c79565b5b6000613397848285016130c7565b91505092915050565b6133a9816139e2565b82525050565b6133b8816139f4565b82525050565b60006133c98261388a565b6133d381856138a0565b93506133e3818560208601613a65565b6133ec81613c7e565b840191505092915050565b600061340282613895565b61340c81856138b1565b935061341c818560208601613a65565b61342581613c7e565b840191505092915050565b600061343b82613895565b61344581856138c2565b9350613455818560208601613a65565b80840191505092915050565b600061346e6026836138b1565b915061347982613c8f565b604082019050919050565b60006134916011836138b1565b915061349c82613cde565b602082019050919050565b60006134b46021836138b1565b91506134bf82613d07565b604082019050919050565b60006134d7600f836138b1565b91506134e282613d56565b602082019050919050565b60006134fa6020836138b1565b915061350582613d7f565b602082019050919050565b600061351d603a836138b1565b915061352882613da8565b604082019050919050565b6000613540601c836138b1565b915061354b82613df7565b602082019050919050565b6000613563602c836138b1565b915061356e82613e20565b604082019050919050565b6000613586603d836138b1565b915061359182613e6f565b604082019050919050565b60006135a9600c836138b1565b91506135b482613ebe565b602082019050919050565b60006135cc602b836138b1565b91506135d782613ee7565b604082019050919050565b6135eb81613a4c565b82525050565b60006135fd8285613430565b91506136098284613430565b91508190509392505050565b600060208201905061362a60008301846133a0565b92915050565b600060808201905061364560008301876133a0565b61365260208301866133a0565b61365f60408301856135e2565b818103606083015261367181846133be565b905095945050505050565b600060208201905061369160008301846133af565b92915050565b600060208201905081810360008301526136b181846133f7565b905092915050565b600060208201905081810360008301526136d281613461565b9050919050565b600060208201905081810360008301526136f281613484565b9050919050565b60006020820190508181036000830152613712816134a7565b9050919050565b60006020820190508181036000830152613732816134ca565b9050919050565b60006020820190508181036000830152613752816134ed565b9050919050565b6000602082019050818103600083015261377281613510565b9050919050565b6000602082019050818103600083015261379281613533565b9050919050565b600060208201905081810360008301526137b281613556565b9050919050565b600060208201905081810360008301526137d281613579565b9050919050565b600060208201905081810360008301526137f28161359c565b9050919050565b60006020820190508181036000830152613812816135bf565b9050919050565b600060208201905061382e60008301846135e2565b92915050565b600061383e61384f565b905061384a8282613aca565b919050565b6000604051905090565b600067ffffffffffffffff82111561387457613873613c31565b5b61387d82613c7e565b9050602081019050919050565b600081519050919050565b600081519050919050565b600082825260208201905092915050565b600082825260208201905092915050565b600081905092915050565b60006138d882613a4c565b91506138e383613a4c565b9250827fffffffffffffffffffffffffffffffffffffffffffffffffffffffffffffffff0382111561391857613917613b75565b5b828201905092915050565b600061392e82613a4c565b915061393983613a4c565b92508261394957613948613ba4565b5b828204905092915050565b600061395f82613a4c565b915061396a83613a4c565b9250817fffffffffffffffffffffffffffffffffffffffffffffffffffffffffffffffff04831182151516156139a3576139a2613b75565b5b828202905092915050565b60006139b982613a4c565b91506139c483613a4c565b9250828210156139d7576139d6613b75565b5b828203905092915050565b60006139ed82613a2c565b9050919050565b60008115159050919050565b60007fffffffff0000000000000000000000000000000000000000000000000000000082169050919050565b600073ffffffffffffffffffffffffffffffffffffffff82169050919050565b6000819050919050565b82818337600083830152505050565b60005b83811015613a83578082015181840152602081019050613a68565b83811115613a92576000848401525b50505050565b60006002820490506001821680613ab057607f821691505b60208210811415613ac457613ac3613bd3565b5b50919050565b613ad382613c7e565b810181811067ffffffffffffffff82111715613af257613af1613c31565b5b80604052505050565b6000613b0682613a4c565b91507fffffffffffffffffffffffffffffffffffffffffffffffffffffffffffffffff821415613b3957613b38613b75565b5b600182019050919050565b6000613b4f82613a4c565b9150613b5a83613a4c565b925082613b6a57613b69613ba4565b5b828206905092915050565b7f4e487b7100000000000000000000000000000000000000000000000000000000600052601160045260246000fd5b7f4e487b7100000000000000000000000000000000000000000000000000000000600052601260045260246000fd5b7f4e487b7100000000000000000000000000000000000000000000000000000000600052602260045260246000fd5b7f4e487b7100000000000000000000000000000000000000000000000000000000600052603260045260246000fd5b7f4e487b7100000000000000000000000000000000000000000000000000000000600052604160045260246000fd5b600080fd5b600080fd5b600080fd5b600080fd5b600080fd5b600080fd5b6000601f19601f8301169050919050565b7f4f776e61626c653a206e6577206f776e657220697320746865207a65726f206160008201527f6464726573730000000000000000000000000000000000000000000000000000602082015250565b7f5a6f6e67204c69616e672062752064616f000000000000000000000000000000600082015250565b7f5169616e206d65692064616f20776569207c7c20536f206c657373206d6f6e6560008201527f7900000000000000000000000000000000000000000000000000000000000000602082015250565b7f536869206a69616e2062752064616f0000000000000000000000000000000000600082015250565b7f4f776e61626c653a2063616c6c6572206973206e6f7420746865206f776e6572600082015250565b7f4c61692077616e206c652c206368692073686920646f752067616e206275207360008201527f68616e67207265206465207c7c20596f7520617265206c617465000000000000602082015250565b7f5969206a696e672074696e67207a6869207c7c204861642073746f7000000000600082015250565b7f426965206469616f20796f6e67206865207975652c2068756f206a692e207c7c60008201527f204e6f20636f6e74726163740000000000000000000000000000000000000000602082015250565b7f536875206c69616e6720626965206368616f2067756f20332068756f207a686560008201527f207869616f2079752030207c7c204e756d6265722069732077726f6e67000000602082015250565b7f5969206a696e67206d696e740000000000000000000000000000000000000000600082015250565b7f736869206a69616e206368616f2067756f2037207469616e207c7c204861642060008201527f676f6e6520372064617973000000000000000000000000000000000000000000602082015250565b613f3f816139e2565b8114613f4a57600080fd5b50565b613f56816139f4565b8114613f6157600080fd5b50565b613f6d81613a00565b8114613f7857600080fd5b50565b613f8481613a4c565b8114613f8f57600080fd5b5056fea264697066735822122040475885a5cdff15f62377b9693efa8b6a02cac6d0f9ef29fb51d24d5441d7a564736f6c63430008070033",
  "linkReferences": {},
  "deployedLinkReferences": {}
}